S00D000074657374332E7372656324
S113000012C024C023C022C021C020C01FC01EC0F3
S11300101DC01CC01BC01AC019C018C017C016C010
S113002015C014C013C011241FBECFE5D4E0DEBF39
S1130030CDBF10E0A0E6B0E0E0EEFBE002C005902A
S11300400D92AC36B107D9F711D0C8C5D9CF89B94B
S113005090BD86E880BD88E18AB908955F9BFECF94
S11300608CB108955D9BFECF8CB90895CF93DF9337
S1130070CDB7DEB764970FB6F894DEBF0FBECDBF21
S113008083E390E0E4DF8FB582688FBD8EB58A612B
S11300908EBD80E29EE497BD86BDB99AB89A88E782
S11300A095E09BBD8ABD88248394912C8C0E9D1E63
S11300B05E0126E0A20EB11C0F2EF4E6CF2ED12C49
S11300C0F02D0F2EFCE2EF2EFF24F394F02D0F2ED3
S11300D0F8EE6F2EF3E07F2EF02DF40124E111925F
S11300E02A95E9F7C401EFD08401F80181918F01C9
S11300F0B9DFC601E3ECF9E03197F1F700C0000085
S11301000197C1F70A151B0581F78A8190E0880FD2
S1130110991FBC01660F771F660F771F860F971F05
S11301202B81BC01620F711D60517240882777FDDD
S11301308095982F79D11B012C016D8170E060535B
S11301407109882777FD8095982F6ED12DEC3CECB2
S11301504CEC5DE31DD29B01AC01C201B101FAD0AC
S1130160462E572E082F192F20E030E040ED51E4A1
S11301700BD288230CF0C09820E030E040ED51E42D
S1130180642D752D802F912F49D188230CF4C09AAA
S113019065DF8133A9F42AE030E08AB59BB549963E
S11301A09BBD8ABDC701E3ECF9E03197F1F700C0CC
S11301B000000197C1F72150310979F783E552DF37
S11301C08AB59BB58937954078F487CF8AB59BB5B6
S11301D0C2979BBD8ABDC701E3ECF9E03197F1F703
S11301E000C000000197C1F78AB59BB589379540D7
S11301F068F788E795E09BBD8ABDC301E3ECF9E0AD
S11302003197F1F700C000000197C1F766CF9C0158
S113021021503109892B21F0000021503109E0F7E8
S11302200895CF93AD98A59A80EE91E0F0DFA5985C
S11302308CE390E0ECDFC3B384EA91E0E8DF8C2F39
S11302408072CF910895CF93C82FAD98A59A81E07D
S113025090E0DDDFC111A5988CE390E0D8DFA5988C
S1130260CF910895CF93AD98A59A81E090E0CFDF28
S1130270A5988EE090E0CBDFC3B38DE290E0C7DFBA
S1130280C5FB882780F9CF910895CF93DF93C8E009
S1130290D0E0E8DF20E8829FC0011124D695D82B56
S11302A0C150B9F78D2FDF91CF910895CF93DF938C
S11302B0D82FC8E08D2F8170C6DFD695C150D1F7F5
S11302C0DF91CF9108950F931F93CF93DF93D82F8E
S11302D0192FA7DF8CECEADF84E4E8DFC3DF88238F
S11302E0E9F39FDF8CECE2DF8EEBE0DFCEDFC82F9B
S11302F0CCDF082F96DF8C2F82958F70CF7041E76B
S113030052E0C49F9001C59F300D11243F932F9359
S1130310077090E1099F90011124482F422B242F4C
S1130320332727FD30953F934F9320E630E03F93EA
S11303302F931F93DF938FD18DB79EB708960FB677
S1130340F8949EBF0FBE8DBFDF91CF911F910F9187
S113035008955058BB27AA270ED0DCC0CDD030F06A
S1130360D2D020F031F49F3F11F41EF4C2C00EF439
S1130370E095E7FBB8C0E92FDED080F3BA17620737
S113038073078407950718F071F49EF5F6C00EF410
S1130390E0950B2EBA2FA02D0B01B90190010C0191
S11303A0CA01A0011124FF27591B99F0593F50F4A9
S11303B0503E68F11A16F040A22F232F342F442701
S11303C0585FF3CF469537952795A795F0405395F9
S11303D0C9F77EF41F16BA0B620B730B840BBAF0C9
S11303E09150A1F0FF0FBB1F661F771F881FC2F734
S11303F00EC0BA0F621F731F841F48F48795779548
S11304006795B795F7959E3F08F0B3CF9395880FFE
S113041008F09927EE0F97958795089540D008F432
S113042081E00895E89409C097FB3EF49095809587
S1130430709561957F4F8F4F9F4F9923A9F0F92FA6
S113044096E9BB279395F695879577956795B79524
S1130450F111F8CFFAF4BB0F11F460FF1BC06F5F0A
S11304607F4F8F4F9F4F16C0882311F096E911C01C
S1130470772321F09EE8872F762F05C0662371F03D
S113048096E8862F70E060E02AF09A95660F771F51
S1130490881FDAF7880F9695879597F90895990F2D
S11304A00008550FAA0BE0E8FEEF16161706E8073A
S11304B0F907C0F012161306E407F50798F0621B5B
S11304C0730B840B950B39F40A2661F0232B242B30
S11304D0252B21F408950A2609F4A140A6958FEF4F
S11304E0811D811D089597F99F6780E870E060E0A1
S11304F008959FEF80EC089500240A9416161706B9
S113050018060906089500240A9412161306140600
S113051005060895092E0394000C11F4882352F063
S1130520BB0F40F4BF2B11F460FF04C06F5F7F4F1B
S11305308F4F9F4F089557FD9058440F551F59F002
S11305405F3F71F04795880F97FB991F61F09F3FBC
S113055079F087950895121613061406551FF2CFE5
S11305604695F1DF08C0161617061806991FF1CF35
S113057086957105610508940895E894BB2766275C
S11305807727CB0197F908958ADF08F48FEF089550
S11305900BD0C0CFB1DF28F0B6DF18F0952309F0F7
S11305A0A2CFA7CF1124EACFC6DFA0F3959FD1F342
S11305B0950F50E0551F629FF001729FBB27F00D0D
S11305C0B11D639FAA27F00DB11DAA1F649F662762
S11305D0B00DA11D661F829F2227B00DA11D621FB1
S11305E0739FB00DA11D621F839FA00D611D221F6B
S11305F0749F3327A00D611D231F849F600D211D4F
S1130600822F762F6A2F11249F5750408AF0E1F0F1
S113061088234AF0EE0FFF1FBB1F661F771F881F3A
S113062091505040A9F79E3F510570F05CCFA6CF82
S11306305F3FECF3983EDCF3869577956795B79525
S1130640F795E7959F5FC1F7FE2B880F911D96954F
S1130650879597F90895AEE0B0E0E0E3F3E095C242
S11306600D891E8986E08C831A8309838FEF9FE7A7
S11306709E838D83CE014996AC016F89788DCE011E
S1130680019608D0EF81F885E00FF11F10822E96B5
S1130690E4E097C2ACE0B0E0EFE4F3E068C27C01D0
S11306A06B018A01FC0117821682838181FFB9C123
S11306B088248394912C8C0E9D1EF7019381F6015E
S11306C093FD859193FF81916F01882309F4A5C15E
S11306D0853239F493FD859193FF81916F018532C1
S11306E021F4B70190E0B9D1E8CF512C312C20E0AE
S11306F02032A8F48B3261F028F4803251F0833236
S113070071F40BC08D3239F0803349F4216028C074
S11307102260246025C0286023C0206121C027FDF9
S113072027C0382F30533A3078F426FF06C0FAE059
S11307305F9E300D1124532E13C08AE0389E300D75
S11307401124332E20620CC08E3221F426FD65C1A3
S1130750206406C08C3611F4206802C0883641F447
S1130760F60193FD859193FF81916F018111C0CFB3
S1130770982F9554933018F09052933028F40C5FCE
S11307801F4FFFE3F9830DC0833631F0833771F0D7
S1130790833509F05AC022C0F801808189830E5F35
S11307A01F4F44244394512C540114C03801F2E0E7
S11307B06F0E711CF801A080B18026FF03C0652D67
S11307C070E002C06FEF7FEFC5012C873BD12C0195
S11307D083012C856FE7262E222217C03801F2E010
S11307E06F0E711CF801A080B18026FF03C0652D37
S11307F070E002C06FEF7FEFC5012C8718D12C0188
S11308002C8550E8252E222A830123FC1AC005C01A
S1130810B70180E290E021D13A94832D90E048160C
S11308205906B0F30EC0F50127FC859127FE81918E
S11308305F01B70190E011D131103A94F1E04F1A01
S113084051084114510479F7E5C0843611F0893612
S113085039F5F80127FF07C0608171818281938196
S11308600C5F1F4F08C060817181882777FD8095D8
S1130870982F0E5F1F4F4FE6B42EB22297FF09C088
S113088090958095709561957F4F8F4F9F4FF0E8BD
S1130890BF2A2AE030E0A4010CD1A82EA81842C037
S11308A0853731F43FEEB32EB2222AE030E024C083
S11308B099EFB92EB2228F36B9F020F4883509F0B9
S11308C0ACC00DC0803721F0883709F0A6C002C043
S11308D020E1B22AB4FE0BC084E0B82A08C024FF89
S11308E009C0E6E0BE2A06C028E030E005C020E1E9
S11308F030E002C020E132E0F801B7FE07C06081B9
S11309007181828193810C5F1F4F06C06081718168
S113091080E090E00E5F1F4FA401CBD0A82EA81852
S1130920FFE7BF22B6FE0BC02B2D2E7FA51450F47B
S1130930B4FE0AC0B2FC08C02B2D2E7E05C07A2C52
S11309402B2D03C07A2C01C0752C24FF0DC0FE0191
S1130950EA0DF11D8081803311F4297E09C022FF44
S113096006C07394739404C0822F867809F073943C
S113097023FD13C020FF0EC05A2C731458F4530CDB
S11309805718732C07C0B70180E290E02C8765D01C
S113099073942C857314B8F304C0731410F43718CB
S11309A001C0312C24FF11C0B70180E390E02C87F3
S11309B054D02C8522FF1CC021FF03C088E590E0A1
S11309C002C088E790E0B7010CC0822F867881F0DE
S11309D021FD02C080E201C08BE227FD8DE2B70158
S11309E090E03BD005C0B70180E390E036D05A9444
S11309F0A514C8F3AA94F401EA0DF11DB70180818E
S1130A0090E02BD0A110F6CF05C0B70180E290E0B2
S1130A1024D03A943110F9CF50CEF7012681378192
S1130A2002C02FEF3FEFC9012C96E2E1BCC0FC01EC
S1130A300590615070400110D8F7809590958E0F05
S1130A409F1F0895FC016150704001900110D8F778
S1130A50809590958E0F9F1F08950F931F93CF93AA
S1130A60DF938C01EB018B8181FD03C00FEF1FEF3E
S1130A701AC082FF0DC02E813F818C819D81281771
S1130A80390764F4E881F9810193F983E88306C0A6
S1130A90E885F985802F0995892B41F78E819F81FF
S1130AA001969F838E83C801DF91CF911F910F918F
S1130AB00895FA01AA27283051F1203181F1E894F0
S1130AC06F936E7F6E5F7F4F8F4F9F4FAF4FB1E03D
S1130AD03ED0B4E03CD0670F781F891F9A1FA11D38
S1130AE0680F791F8A1F911DA11D6A0F711D811D39
S1130AF0911DA11D20D009F468943F912AE0269FFE
S1130B0011243019305D3193DEF6CF010895462F5C
S1130B104770405D4193B3E00FD0C9F7F6CF462F3D
S1130B204F70405D4A3318F0495D31FD40524193A6
S1130B3002D0A9F7EACFB4E0A69597958795779563
S1130B406795BA95C9F700976105710508959B01EA
S1130B50AC010A2E06945795479537952795BA9573
S1130B60C9F7620F731F841F951FA01D08952F924C
S1130B703F924F925F926F927F928F929F92AF9229
S1130B80BF92CF92DF92EF92FF920F931F93CF9376
S1130B90DF93CDB7DEB7CA1BDB0B0FB6F894DEBF0D
S1130BA00FBECDBF09942A88398848885F846E8433
S1130BB07D848C849B84AA84B984C884DF80EE807D
S1130BC0FD800C811B81AA81B981CE0FD11D0FB686
S1130BD0F894DEBF0FBECDBFED010895F894FFCFAA
S10F0BE0252B642E2530347520430000C2
S9030000FC
